:020000040800F2
:10000000806D0020310200081726000851220008E8
:1000100015260008B7030008814100080000000011
:10002000000000000000000000000000990100082E
:10003000C104000800000000DD010008B527000829
:100040004B0200084B0200084B0200084B0200085C
:100050004B0200084B0200084B0200084B0200084C
:100060004B0200084B0200084B020008FD03000889
:100070004B0200084B0200084B0200084B0200082C
:10008000090400084B0200084B0200084B0200085C
:100090004B0200084B0200084B0200084B0200080C
:1000A0004B020008852800084B0200084B0200089C
:1000B0004B0200084B0200084B0200084B020008EC
:1000C0004B0200084B0200084B0200084B020008DC
:1000D0004B0200084B0200084B0200084B020008CC
:1000E0004B0200084B0200084B0200084B020008BC
:1000F0004B0200084B0200084B0200084B020008AC
:100100004B0200084B0200084B0200084B0200089B
:100110004B0200084B0200084B0200084B0200088B
:10012000150400084B020008210400082D040008F3
:100130004B02000800000000000000004B02000815
:100140004B0200084B0200084B0200084B0200085B
:100150004B0200084B020008390400084B0200085B
:100160004B0200084B0200084B0200084B0200083B
:100170004B0200081D260008000000004B0200088A
:100180004B020008DFF80CD000F0D8F80048004718
:1001900011420008806D0020224B19680868B0E801
:1001A000F00F80F30988BFF36F8F4FF0000080F3EA
:1001B00011884EF00D0E70470000000006480068E0
:1001C000006880F3088862B661B6BFF34F8FBFF353
:1001D0006F8F00DF00BF00BF08ED00E0EFF3098084
:1001E000BFF36F8F0F4B1A6820E9F00F106008B54E
:1001F0004FF0500080F31188BFF34F8FBFF36F8F24
:1002000004F008FF4FF0000080F31188BDE80840BB
:1002100019680868B0E8F00F80F30988BFF36F8FA2
:10022000704700BF7C000020EFF30580704700009E
:100230000648804706480047FEE7FEE7FEE7FEE780
:10024000FEE7FEE7FEE7FEE7FEE7FEE73D280008E3
:10025000850100082DE9F05F0546002092469B4687
:1002600088460646814640241BE0284641464746CC
:10027000224600F053F853465A46C01A914110D313
:1002800011461846224600F03AF82D1A67EB01088D
:100290004F4622460120002100F031F817EB0009FB
:1002A0004E41201EA4F10104DFDC484631462A46B7
:1002B0004346BDE8F09F40EA01039B0703D009E0F5
:1002C00008C9121F08C0042AFAD203E011F8013B42
:1002D00000F8013B521EF9D27047D2B201E000F89B
:1002E000012B491EFBD270470022F6E710B51346DA
:1002F0000A4604461946FFF7F0FF204610BD202AA3
:1003000004DB203A00FA02F1002070479140C2F16C
:10031000200320FA03F3194390407047202A04DB9E
:10032000203A21FA02F00021704721FA02F3D0406E
:10033000C2F120029140084319467047064C074D10
:1003400006E0E06840F0010394E8070098471034A5
:10035000AC42F6D3FFF71AFF745A0008945A00080B
:1003600070B58C1810F8015B15F0070301D110F877
:10037000013B2A1106D110F8012B03E010F8016BA4
:1003800001F8016B5B1EF9D12B0705D40023521E27
:100390000DD401F8013BFAE710F8013BCB1A921C8F
:1003A00003E013F8015B01F8015B521EF9D5A1428D
:1003B000D8D3002070BDFEE70020704700207047B2
:1003C00010B500220449054802F07EFC04490348A8
:1003D00002F074FC002010BDAC160020E8050020DF
:1003E000AC0E002010B50146034802F067FC02483D
:1003F00002F048FC002010BDE8050020014800F094
:1004000071B90000E8030020014800F06BB900005A
:1004100048040020014800F065B9000028030020CE
:10042000014800F05FB9000028050020014800F0F5
:1004300059B9000088030020014800F053B90000BA
:100440008805002001681823CAB2103AB2FBF3F203
:10045000054B6FF30901032A9B5CC36500D9091D95
:100460008165084670470000485A000810B50146EB
:1004700000208B698A6A4FF0C07453B1B3F5005FF6
:1004800015D072B1012A0CD0022A0AD0032A09D150
:1004900004E01AB1012A06D0022A03D1C96AC901AF
:1004A00000D5012010BDC96AA142FAD010BD002AB2
:1004B000F7D0012AF2D0022AF3D0032AF3D010BDDC
:1004C0007047704710B5D1E9004344EA03230C8913
:1004D000097B240444EA01610B43102A03D0C16A5A
:1004E000C362002010BDC168C360FAE710B5D1E94E
:1004F000004344EA03230C89097B240444EA016194
:100500000B43102A03D0816A8362002010BD8168EA
:100510008360FAE770B5D1E901231A43D1E90336C4
:1005200033431A434B690D6889690B4C42EA4322F5
:1005300042EA4131102D07D0026A2240114341F0B6
:1005400008010162002070BD02682240114341F0A1
:1005500008010160F6E700008101F0FF70B50400BA
:1005600003D094F8200010B104E0012070BD2046B3
:1005700000F082F82068016821F00201016000F0BB
:100580003FFB0546052604E000F03AFB401B0A2825
:1005900011D8206840688007F6D42068016841F0CF
:1005A0000101016000F02CFB05460BE000F028FB88
:1005B000401B0A2806D9606A40F40030606284F863
:1005C0002060D2E720684068C007EFD0207E012875
:1005D000206801683DD021F080010160607E012823
:1005E0002068016838D021F040010160A07E012818
:1005F0002068016833D021F020010160E07E0128ED
:10060000206801682ED041F010010160207F012890
:100610002068016829D021F008010160607F01286D
:100620002068016824D021F004010160D4E90201AE
:100630000843D4E90412114308436168491E084382
:100640002168C86100206062012084F82000002039
:1006500070BD41F08001C0E741F04001C5E741F0C5
:100660002001CAE721F01001CFE741F00801D4E7EB
:1006700041F00401D9E7000010B586B0044614210A
:100680006846FFF731FE14492068884221D113489B
:100690000021026842F000720260006800F0007001
:1006A00005900E481038026842F0020202600068AD
:1006B00000F0020005904FF4407000900220CDE958
:1006C000010103200390092004906946044800F0CA
:1006D0009BF906B010BD00000064004040380240A5
:1006E000000402402DE9F84304464FF00009CDF81C
:1006F000009063484FF41651A56D0068B0FBF1F708
:100700002E6894F85C10082000FA01F131420FD0F5
:1007100021680A6852070BD50A6822F004020A60B1
:1007200094F85C108840A860606D40F0010060653E
:1007300094F85C104FF0010808FA01F0304208D03C
:1007400021684969090604D5A860606D40F002007F
:10075000606594F85C1004208840304208D021681D
:100760000968890704D5A860606D40F004006065E1
:1007700094F85C1010208840304218D02168096835
:10078000090714D5A86020680168490304D50068EA
:10079000000308D5A16C07E00168C90503D401680E
:1007A00021F008010160216C09B12046884794F8C6
:1007B0005C1020208840304231D021680968C90689
:1007C0002DD5A86094F8350005282068016806D06A
:1007D000490347D5006800031DD4616C1CE021F07B
:1007E000160101602068416921F080014161206C9F
:1007F00008B9A06C20B12068016821F008010160EF
:1008000094F85C103F208840A86084F8349084F805
:100810003580216D1FE0E16B09B120468847606D8E
:1008200000282BD0606DC00714D0052084F8350057
:100830002068016821F0010101600098401C0090CF
:10084000B84203D820680068C007F6D184F8349015
:1008500084F83580E16C002910D001B02046BDE855
:10086000F04308470168C905D5D4016821F010019B
:10087000016084F8349084F83580CCE7BDE8F883D3
:10088000780000202DE9F041044600F0B9F9064651
:100890005CB1002584F83450022084F835002068CB
:1008A000016821F0010101600DE00120BDE8F08147
:1008B00000F0A6F9801B052805D9202060650320DB
:1008C00084F83500F2E720680068C007F0D122689C
:1008D000116820480140D4E901031843D4E90336E4
:1008E0003343184363691843A3691843E369184302
:1008F000236A18430843616A042903D1D4E90B131E
:1009000019430843106020684069666A20F00701B7
:1009100030460E43012704280CD1A06A0643E06A42
:1009200040B12046FFF7A2FD20B14020606584F869
:100930003570BAE7206846612046FFF783FD94F8DA
:100940005C203F2191408160656584F8357000200E
:10095000ACE700003F8010F031B500F051F9009C89
:100960000546601C02D004480078044400F048F9B1
:10097000401BA042FAD338BD6C000020F0B587B010
:1009800014216846FFF7B0FC1A48016800292ED1EF
:100990000121016018480024016841F00101016053
:1009A0000068022500F0010005904FF4F060CDE9E9
:1009B000000502AA03260C2782E8D00069460F48EA
:1009C00000F022F84DF6B300CDE9000502AA694611
:1009D00082E8D0000A4800F017F84020CDE9000571
:1009E00002AA694682E8D000064800F00DF807B078
:1009F000F0BD000004000020383802400010024022
:100A0000000C0240001802402DE9F84FDFF8B4B1A5
:100A1000002301274FF0030A4FF00F090BF1040EDA
:100A2000C9E000BF07FA03F6324070D04C68022CD0
:100A300001D0122C12D1DC0800EB840CDCF8204031
:100A40005D07ED0E09FA05F824EA0804D1F81080D4
:100A500008FA05F848EA0408CCF82080D0F80080AD
:100A60005D0091F804C00AFA05F40CF0030C28EAC2
:100A700004080CFA05FC4CEA080CC0F800C0D1F8D8
:100A800004C0BCF1010F08D0BCF1020F05D0BCF1CD
:100A9000110F02D0BCF1120F16D1D0F808C0D1F856
:100AA0000C802CEA040C08FA05F848EA0C08C0F897
:100AB0000880D0F804C02CEA060C0E79C6F30016A4
:100AC0009E4046EA0C064660C668A6438C68AC4069
:100AD0003443C4604C68E4006CD53B4C256845F455
:100AE00080452560246823F0030504F480440094C5
:100AF000364C2E19D6F808489D074FEA157C09FA9E
:100B00000CF5AC43324DA84202D1002529E051E05A
:100B1000304DA84201D1012523E02F4DA84201D13B
:100B200002251EE02D4DA84201D1032519E02C4DD0
:100B3000A84201D1042514E02A4DA84201D105257F
:100B40000FE0294DA84201D106250AE0274DA84211
:100B500001D1072505E0264DA84201D1082500E076
:100B6000092505FA0CF52543C6F80858DBF80040BE
:100B70005D464E689443F60300D514432C60DEF8BE
:100B8000004075464E689443B60300D514432C606C
:100B90000C4D08352C684E689443F60200D514437A
:100BA0002C60084D0C352C684E689443B60200D575
:100BB00014432C605B1C0A6832FA03F47FF432AFF2
:100BC000BDE8F88F003C014044380240003001404D
:100BD000000002400004024000080240000C0240F5
:100BE000001002400014024000180240001C0240A5
:100BF000002002400AB1816170470904FBE7000050
:100C000001488068704700006C000020024881683D
:100C100002781144816070476C0000200B4810B5C9
:100C2000016841F400710160016841F48061016074
:100C3000016841F480710160032000F0BFF80020DA
:100C400000F006F800F03EF8002010BD003C024025
:100C500010B5014688B00022192000F08FF8192045
:100C600000F07FF813480024016841F4003101606E
:100C7000006805A900F400300690684600F012FEF6
:100C800000F04EFE0C494000B0FBF1F10C480B4A5D
:100C9000491E026040F2E732C0E90324C0E90114B2
:100CA00001F04AF910B1012008B010BD044801F06C
:100CB0005FF9F9E74438024040420F000044014028
:100CC000A80400200C4882B0016841F48041016012
:100CD000006800F4804000900748001F016841F060
:100CE000805101600068002200F0805000900F21C8
:100CF000901E02B000F042B84438024070B515466C
:100D00000E46040003D094F8210010B107E0012042
:100D100070BD002084F82000204600F020F8211D3E
:100D20002068FFF7F7FBD4E900023146FFF7DEFB4E
:100D3000D4E900022946FFF7C5FB60681028206847
:100D400008D0016A41F004010162012084F8210009
:100D5000002070BD016841F004010160F5E7FFF774
:100D60000DBE002809DB00F01F020121914040095F
:100D7000800000F1E020C0F800117047F0B40E4B85
:100D80001B680C46C3F30223C3F10705042D00D9E9
:100D90000425191D072901D2002300E0DB1E0126CE
:100DA00006FA05F1491E214099409E40761E1640E4
:100DB0003143F0BC03F0E5B90CED00E0064900F06A
:100DC000070208684FF6FF03184040EA0220034A72
:100DD00010430860704700000CED00E00000FA05C9
:100DE0000068416200207047F0B50368586A39B165
:100DF0009C6A4FF4827600EB144400204D1E0AE0FA
:100E000040EA024098620FE006EB8007DF59401C81
:100E100004EB1744C0B2A842F6D344EA02404FF4B0
:100E2000807202EB810158500020F0BDD0F8FC0325
:100E300002F0DFB9C1EBC10200EB8202D0F8FC0383
:100E4000926C02F032B9C1EBC10200EB8202D0F821
:100E5000FC03D2F8082202F08BB9D0F8FC0302F0B0
:100E6000CAB970B504460B0601F00F00C0EBC00113
:100E700004EB81014FF001024FF0000503D581F82A
:100E80003D203C3103E081F8FD5101F5FE71087011
:100E900094F8BC03012808D084F8BC23206802F031
:100EA00025FD84F8BC53002070BD022070BD70B5D4
:100EB000044601F00F006268904201D9012070BD24
:100EC0000B0601F00F01C1EBC10104EB81014FF0F2
:100ED00001024FF0000503D581F83D203C3103E0CD
:100EE00081F8FD5101F5FE718D70087094F8BC0316
:100EF000012808D084F8BC23206802F0D3FE84F8CF
:100F0000BC53002070BD022070BD01F00F01C1EB89
:100F1000C10100EB8100D0F8140270472DE9F041C7
:100F200004460F0601F00F00C0EBC00104EB810185
:100F30004FF001064FF0000503D581F83D603C31CC
:100F400003E081F8FD5101F5FE7108708A60CB70F5
:100F50004A7802B1C880022B00D10D7194F8BC030D
:100F6000012809D084F8BC63206802F013FC2846ED
:100F700084F8BC53BDE8F0810220FBE770B50C4655
:100F800001F00F05C5EBC50100EB8101C1F810327E
:100F9000C1F808220023C1F8143281F8FD3181F82C
:100FA000FC51036901F5FE71012B00D10A61220792
:100FB000027C006803D002F0CDFE002070BD02F07C
:100FC000B9FDFAE770B504460D4601F00F006168FF
:100FD000884201D9012070BD29064FF000064FF06C
:100FE000010207D5C0EBC00104EB810181F83D206F
:100FF0003C3107E0C5EBC50104EB810181F8FD61DF
:1010000001F5FE718A70087094F8BC03012807D0BE
:1010100084F8BC23206802F071FE280702D007E0A4
:10102000022070BD217C04F57172206802F00EFE72
:1010300084F8BC63002070BD70B50C4601F00F054C
:10104000C5EBC50100EB81010B658A6400234B658C
:10105000012381F83D3001F83C5F0369012B00D189
:101060000A612207027C006803D002F073FE0020B0
:1010700070BD02F05FFDFAE72DE9FC5F05680446EC
:10108000284602F090FF00287ED1206802F0B7FFCA
:10109000002879D0206802F0B2FF800704D52068CC
:1010A000416901F002014161206802F0A8FF0103DB
:1010B00004F571704FF001094FF0080A4FF0100B62
:1010C000009074D50026206802F078FF07466CE097
:1010D000F80768D0F1B2206802F089FF8046C007A7
:1010E00007D005EB4611C1F8089B3146204601F0B8
:1010F0009BFA5FEA087034D52068016C019100EB1F
:101100004611D1F8080B2269012A019A0FD0EA4B47
:101110009A4215D1000403D54FF40040C1F8080BE2
:10112000204600F0E5FA2069012811D015E0E34BD4
:101130009A4205D9000403D54FF40040C1F8080BCA
:10114000204600F0D5FADD4901988842EBD804E04A
:1011500020680121009A02F079FD05EB4611C1F8E3
:1011600008AB5FEAC86003D505EB4611C1F808BBC0
:101170005FEA88600ED52069012804D1206801212A
:10118000009A02F063FD00E093E105EB4610202198
:10119000C0F8081B5FEA884005D505EB46104FF400
:1011A0000051C0F8081B7F08761C002F90D12068E2
:1011B00002F025FF40035ED5206802F0F8FE0746E6
:1011C000002656E0F80752D0F1B2206802F0FDFE8A
:1011D0008046C00726D006F00F0109FA01F0D5F8C5
:1011E00034188143C5F8341805EB4610C0F8089947
:1011F0002069012807D1C6EBC60004EB8000D0E9C6
:10120000112111448164F1B22046FFF713FE2069D9
:10121000012807D136B9206D20B920680121009A34
:1012200002F014FD5FEA087003D505EB4611C1F822
:1012300008A95FEAC86003D505EB4610C0F808B9F5
:101240005FEA486004D505EB46104021C0F8081954
:101250005FEA887004D505EB46100221C0F8081932
:101260005FEA086003D53146204601F04BFA7F085B
:10127000761C002FA6D1206802F0C1FE00280DDAEE
:10128000D5F8040820F00101C5F80418204600F044
:1012900013FA2068416901F000414161206802F0C1
:1012A000AEFE00050BD5D5F80808C00702D02046D1
:1012B00000F03AFA2068416901F400614161206858
:1012C00002F09DFEC00459D5D5F8040820F00101B4
:1012D000C5F804181021206802F046FE00214FF6E0
:1012E0007F3212E005EB4110C0F80829D0F8003930
:1012F00023F40013C0F80039C0F8082BD0F8003BE5
:1013000023F40013C0F8003B491C60688842E9D808
:10131000D5F81C0840F00111C5F81C18206B0028F6
:1013200028460DD0D0F8840840F00B01C5F8841889
:10133000D5F8440840F00B012846C5F844180DE0E4
:10134000D0F8140842F22B010843C5F81408D5F868
:10135000100840F00B012846C5F81018D0F8000816
:1013600020F4FE61C5F80018217C2068009A02F084
:101370006DFC2068416901F480514161206802F0F0
:101380003EFE800415D5206802F044FA206802F081
:10139000FDFDE06000F0A6FA0146227B206802F025
:1013A00069FE204600F072F92068416901F400519D
:1013B0004161206802F023FEC00634D520688169AF
:1013C00021F0100181612F6A07F00F00C0EBC0000F
:1013D00004EB8006C7F3434006F5FE76022802D0F0
:1013E000062811D01AE047F6F070074216D0C7F36E
:1013F0000A1217462846F16802F005FEF0683844E4
:10140000F060B069384408E008222846009902F0EC
:10141000FAFDB069C7F30A110844B0612068816918
:1014200041F010018161206802F0E9FD000707D555
:10143000204600F045F92068416901F0080141614A
:10144000206802F0DCFDC00208D50021204600F033
:1014500037F82068416901F480114161206802F089
:10146000CEFD800208D50021204600F02DF820682E
:10147000416901F400114161206802F0C0FD4000A3
:1014800007D52046FFF7D2FC2068416901F0804172
:101490004161206802F0B3FD40070AD52068456825
:1014A000680702D52046FFF7D8FC20684168294329
:1014B0004160BDE8FC9F00000A31544F0A30544F90
:1014C000D0F8FC0301F0EABED0F8FC0301F0E8BE5E
:1014D0002DE9F0418AB0040005D094F8BD032668D8
:1014E000002520B108E001200AB0BDE8F08184F8B1
:1014F000BC53204600F05EF8032084F8BD03F06B77
:10150000C00500D42561206802F00EFB04F1100133
:10151000282288466846FEF7CEFE94E80F0002F0C7
:1015200093F90226C8BB0021206802F07AFD002052
:1015300001270EE0C0EBC00104EB810181F83D7092
:1015400001F83C0FC880CD708D60CD60401CC0B2EA
:101550004D6161688142EDD8002011E0C0EBC0010F
:1015600004EB810181F8FD5181F8FC0181F8FF5104
:10157000C1F80452C1F80852401CC0B2C1F8105260
:1015800061688142EAD8282241466846FEF793FE08
:1015900094E80F0002F002FA10B184F8BD63A2E7EC
:1015A00084F8385084F8BD73206802F0EBF900200D
:1015B0009AE700002DE9F04186B004461421684600
:1015C000FEF792FE2C492068884251D12B4C4FF0F7
:1015D0000008206840F004002060206800F004004B
:1015E0000590206840F001002060206800F00100B4
:1015F0000590206840F0020020602068022500F07D
:10160000020005900D208DE8210103260A27694676
:101610001B48CDE90367FFF7F7F928208DE8210182
:1016200069461848CDE90367FFF7EEF943F6234012
:101630008DE8210169461448CDE90367FFF7E4F915
:10164000206840F000502060206800F000500590B5
:10165000206840F0804020602068002200F0804038
:10166000059005214D20FFF789FB4D20FFF779FB01
:1016700006B0BDE8F08100000000044030380240B0
:1016800000080240000002400004024070B5044619
:10169000C068012570B1022801D0FEF712FF29466B
:1016A000D4F8FC0301F051FED4F8FC03BDE870400F
:1016B00001F00DBE0025F2E7D0F8FC0301F02FBECB
:1016C000D0F8FC0301F035BE10B5044690F8BC0319
:1016D00001280BD0012084F8BC0384F8381020685E
:1016E00002F0B6FC002084F8BC0310BD022010BD3F
:1016F000D0F8FC2300F57171104601F032BE10B530
:10170000044690F8BC0301280CD0012084F8BC03E7
:10171000206802F02BF9206802F010FC002084F809
:10172000BC0310BD022010BD10B50446D0F8FC0368
:1017300001F056FE2068D0F8001E41F00101C0F80B
:10174000001E206A002804D00248016841F006010A
:10175000016010BD10ED00E0704700002DE9F0477A
:101760000E46050063D0DFF81C81D8F80000F7B200
:1017700000F00F00B04207D288F80070D8F80000DF
:1017800000F00F00B04252D128683F4C810712D5BB
:10179000400703D5206840F4E05020602878000717
:1017A00003D5206840F4604020602068A96820F0DC
:1017B000F000084320602878C0072BD032496868C1
:1017C0000839012810D00968022810D0890700299B
:1017D0002DDA216821F0030101432160FFF710FA9F
:1017E000814641F2883A0EE009688903EFE78901F2
:1017F000EDE700BFFFF704FAA0EB0901514502D95C
:101800000320BDE8F0872068696800F00C00B0EBA9
:10181000810FEFD1D8F80010404601F00F01B1421E
:1018200007D90770006800F00F00B04201D0012016
:10183000E7E72878400705D52068E96820F4E050FC
:10184000084320602878000706D52068296920F41D
:10185000604040EAC100206000F07AF82168F02280
:1018600092FAA2F201F0F001B2FA82F2D140074AF4
:10187000515CC8400649086006480068FFF7E8F96F
:101880000020BEE7003C024008380240505A0008E1
:10189000780000207000002001490120C8647047D2
:1018A000000047420F2202600C4A136803F0030352
:1018B0004360136803F0F0038360136803F4E0539C
:1018C000C36012684FF4E05303EAD2020261044895
:1018D000006800F00F000860704700000838024000
:1018E000003C02400148006870470000780000207A
:1018F00008480949006809684FF4E05292FAA2F2D8
:1019000001F4E051B2FA82F2D140044A515CC8407D
:10191000704700007800002008380240605A000834
:1019200008480949006809684FF4604292FAA2F237
:1019300001F46041B2FA82F2D140044A515CC840DD
:10194000704700007800002008380240605A000804
:10195000154810B5006810F00C02144813D041105F
:10196000042A0FD0082A0ED10F4C241F22682368A6
:1019700002F03F025B0207D52068C0F38810A0FB8D
:10198000010106E0084610BD2168C1F38811A1FBE2
:1019900000010023FEF75EFC2168C1F30141491CF0
:1019A0004900B0FBF1F010BD083802400024F400FB
:1019B000054810B50068000605D5FFF7CDFE0249C1
:1019C0008020891C087010BD0C3802402DE9F84FAA
:1019D000040079D0DFF830B32078ABF10408C007F9
:1019E000A8F1040536D0DBF800105846C1F3810198
:1019F000012908D00068C0F3810002280AD1D8F874
:101A00000000400206D52868800323D560680028BE
:101A1000DFD01FE0BC492079891F0870606860B181
:101A2000FFF7EEF8064604E0FFF7EAF8801B6428AB
:101A300074D828688003F7D50CE0FFF7E1F8064674
:101A400005E000BFFFF7DCF8801B6428F0D82868A9
:101A50008003F7D42078AD4E80074FF0000943D5BE
:101A6000DBF80010584611F00C0F4FF0F80A08D0C0
:101A70000068C0F3810002280AD1D8F800004002B3
:101A800006D42868800713D5E06801281CD10FE030
:101A9000E068D0B101203060FFF7B2F8074604E0FB
:101AA000FFF7AEF8C01B0228C2D828688007F7D518
:101AB00028689AFAAAF22169B2FA82F220F0F800B4
:101AC0009140084328600FE019E1C6F80090FFF745
:101AD00097F8074605E000BFFFF792F8C01B022801
:101AE000A6D828688007F7D42078000727D5DFF824
:101AF00018A2874861690AF16C0A81B1012101606D
:101B0000FFF77EF8074604E0FFF77AF8C01B0228CB
:101B100004D8DAF800008007F6D510E082E0C0F8BB
:101B20000090FFF76DF8074605E000BFFFF768F883
:101B3000C01B022876D8DAF800008007F6D4207897
:101B400040075FD5DFF8C0A100270AF1380ADAF8AC
:101B50000000C0000BD4DAF8001041F08051CAF840
:101B60000010DAF80000012700F08050009069486A
:101B7000016841F4807101600168C90512D40168EF
:101B800041F480710160FFF73BF8009006E000BF70
:101B9000FFF736F80099401A022843D85D480068DC
:101BA000C005F5D55849207A68310870A06888B119
:101BB000FFF726F8009007E0FFF722F80099411A96
:101BC00041F28830814276D84F48683000688007FB
:101BD000F2D510E0FFF714F8009007E0FFF710F8D7
:101BE0000099411A41F28830814264D846486830F1
:101BF00000688007F2D42FB1DAF8001021F080518C
:101C0000CAF80010A069E8B3DBF80010C1F3810145
:101C1000022957D00228C6F8609004D0FEF7F0FFE2
:101C200004464BE047E0FEF7EBFF074605E000BF48
:101C3000FEF7E6FFC01B64283DD828688001F7D472
:101C4000D4E90701084347F6C07292FAA2F2616A2A
:101C5000B2FA82F29140A26A4FF0FF3303EB5202D4
:101C60004FF4403393FAA3F3B3FA83F39A4011434A
:101C700008434FF0706292FAA2F2E16AB2FA82F27D
:101C8000914000E03DE00843C8F8000001203066C4
:101C9000FEF7B6FF044604E0FEF7B2FF001B64281F
:101CA00009D828688001F7D52BE000BFFEF7A8FF10
:101CB000001B642802D90320BDE8F88F2868800142
:101CC000F4D41EE00128F7D0D8F80000E26900F44F
:101CD0008001914213D1226A00F03F0191420ED15E
:101CE000616AC0F38812914209D1A26A00F44031BE
:101CF000914204D1E16A00F07060884201D0012075
:101D0000DAE70020D8E70000083802400000474228
:101D1000800E47420070004070B5040005D00025D9
:101D2000A56294F8510010B106E0012070BD84F85E
:101D30005050204600F030F8022084F8510020680E
:101D4000016821F040010160D4E901010843D4E9B0
:101D500003121143084361690843218B01F40071A8
:101D60000843E1690843216A0843A16A08432168DE
:101D70000860A069042101EA1040616A08432168F3
:101D800048602068C16921F40061C1616565012076
:101D900084F85100002070BD2DE9F04786B005465B
:101DA00014216846FEF7A0FA584A296858480226C6
:101DB000032700244FF0400A4FF4806991425AD122
:101DC000534914310A6842F480520A60096801F4E8
:101DD00080510591016841F001010160016801F045
:101DE00001010591016841F002010160006802AA49
:101DF00000F002000590C020CDE900064FF0050874
:101E000082E8900169464348FEF7FEFD0820CDE9CF
:101E1000000602AA694682E890013F48FEF7F4FDF9
:101E20003F4E3E484FF0C0683060C6E90184C6E9C5
:101E300003497461B461F46134624F4630467462A0
:101E4000FEF720FD08B1FEF73CFBEE643348B563B6
:101E5000334E48306036C6E903477461B461F461BB
:101E60003462746286E80105304648E0AE64B563CA
:101E700006B0BDE8F0872B4A9142F9D124491031D0
:101E80000A6842F400420A60096801F400410591C1
:101E9000016841F0040101600068029400F0040050
:101EA00005904FF4E050CDE900060620CDE903701F
:101EB00069461D48FEF7A8FD194E1C48C0364F461E
:101EC000C6E90004B460C6E903497461B461F46111
:101ED000346230467462FEF7D5FC08B1FEF7F1FAC1
:101EE000EE64B5631148124E783086E81104C6E9F5
:101EF00003477461B461F461346230467462FEF782
:101F0000C1FC0028B2D0FEF7DCFAAFE70030014098
:101F100030380240000002400004024010640240D9
:101F200028030020003C00400008024010600240EE
:101F3000480400207047704710B5040003D094F89F
:101F40003D0010B107E0012010BD002084F83C00E6
:101F5000204600F00CF8022084F83D00211D206886
:101F600000F096FC012084F83D00002010BD704771
:101F70000168CA6842F00102CA600068816801F025
:101F80000701062903D0016841F00101016000202A
:101F90007047704770B50446006801694FF000054E
:101FA000C943890715D4C168C943890711D4E91EFB
:101FB000016101202077206880698007204602D0D7
:101FC000FFF7E7FF04E000F098F8204600F096F8ED
:101FD000257720680169C943490717D4C168C943F7
:101FE000490713D46FF004010161022020772068B3
:101FF000806910F4407F204602D0FFF7CAFF04E05A
:1020000000F07BF8204600F079F825772068016918
:10201000C943090716D4C168C943090712D46FF030
:1020200008010161042020772068C06980072046EC
:1020300002D0FFF7AEFF04E000F05FF8204600F0AA
:102040005DF8257720680169C943C90617D4C168BE
:10205000C943C90613D46FF010010161082020772D
:102060002068C06910F4407F204602D0FFF791FF3E
:1020700004E000F042F8204600F040F825772068A0
:102080000169C943C90708D1C168C943C90704D157
:10209000891E0161204600F033F820680169C943B8
:1020A000090609D4C168C943090605D46FF0800147
:1020B00001612046FFF73EFF20680169C9434906D8
:1020C00009D4C168C943490605D46FF040010161D4
:1020D000204600F01FF820680169C94389060BD427
:1020E000C168C943890607D46FF020010161204609
:1020F000BDE87040FFF71FBF70BD7047704700001C
:1021000000680349884201D1FEF780BD7047000096
:1021100000440140704770B5040004D094F83900C1
:10212000002510B106E0012070BD84F8385020462B
:1021300000F022F8242084F839002068C16821F4D6
:102140000051C160204600F007FC2068016921F4BD
:10215000904101612068416921F02A0141612068B4
:10216000C16841F40051C160E563202084F8390062
:1021700084F83A00002070BD2DE9F04186B0064693
:1021800014216846FEF7B0F82C493068884252D1D5
:102190002B480024016841F010010160006800F044
:1021A0001000059026481438016841F001010160D3
:1021B0000068694600F0010005904FF4C06000908F
:1021C0000220019001200290032003900720049038
:1021D0001C48FEF719FC1D4D1B484FF00067286096
:1021E000C5E901744FF48068C5E903486C61AC61CE
:1021F000EC612C6228466C62FEF744FB08B1FEF7E6
:1022000060F97563AE63114D0F4860357830E5E8CD
:1022100002074020A5E811010C4845F81449603038
:10222000AC61EC612C626C62FEF72CFB08B1FEF72E
:1022300048F93563AE6306B0BDE8F0810010014097
:10224000443802400000024040640240280500205B
:10225000FEE70000F0B500230A24302537261F468C
:1022600011E000BFB4EB107F02D905EB107C01E058
:1022700006EB107C01F813C001EB430C00015B1C62
:102280008CF80170DBB29342ECD3F0BD0D4810B571
:102290000B4901601021416000218160C160016132
:1022A0004161017641768176C17601774177FEF70B
:1022B00055F9002803D0BDE81040FEF702B910BD63
:1022C0000064004010020020214808B5016841F474
:1022D00080010160016801F480010091016841F40E
:1022E000001101600068002200F400100090052138
:1022F0000B20FEF743FD0B20FEF733FD00220521E6
:102300001020FEF73BFD1020FEF72BFD00220521DB
:102310003820FEF733FD3820FEF723FD002205218B
:102320003A20FEF72BFD3A20FEF71BFD0022052187
:102330003B20FEF723FD3B20FEF713FD0022052185
:102340004620FEF71BFDBDE808404620FEF709BD0C
:102350003038024000B589B001F0C2FF242206499E
:102360006846FDF7A8FF6A460021044801F0F4FF23
:102370000349086009B000BD245A0008A7270008D7
:102380000000002000B5164889B0144A02601022EF
:10239000426000210222C0E90221016141618161A4
:1023A000C16141628162C16201634163816380F8FE
:1023B0003C10FC2000900190029003900490059046
:1023C0000690079004AA69460548FEF797FC002886
:1023D00001D0FEF776F809B000BD0000600000A053
:1023E000380200202DE9F04387B014216846FDF73C
:1023F0007BFF3F480024016841F00401016001684F
:1024000001F004010591016841F08001016001685B
:1024100001F080010591016841F00101016001684E
:1024200001F001010591016841F0020101600168BC
:1024300001F002010591016841F02001016001688D
:1024400001F020010591016841F01001016001686F
:1024500001F010010591016841F008010160016877
:1024600001F008010591016841F040010160006838
:10247000204F00F0400042F230050590002229462E
:102480003846FEF7B7FBDFF8708000220221404695
:10249000FEF7B0FBDFF864904FF40056002231469F
:1024A0004846FEF7A7FB00950125CDE90154694692
:1024B00038460394FEF7A8FA02200090CDE90154B3
:1024C000694640460394FEF79FFA0096CDE9015411
:1024D000694648460394FEF797FAA803CDE900043D
:1024E000694648460294FEF78FFA07B0BDE8F083CC
:1024F0003038024000080240000002400014024050
:102500000F4810B50D4901604FF482714160002100
:102510008160C1604FF400720161C0E90512C161C0
:102520000162416281620A21C162FFF7F5FB002866
:1025300003D0BDE81040FDF7C4BF10BD003001401E
:10254000780200200F4810B50D4901604FF48271E8
:10255000416000218160C1604FF400720161C0E9F7
:102560000512C1610162416281620A21C162FFF705
:10257000D3FB002803D0BDE81040FDF7A2BF10BD7B
:10258000003C0040D00200200C4810B50A49016010
:102590004FF4E1314160002181600C22C160C0E94B
:1025A00004128161C161FFF7B6FD002803D0BDE8C8
:1025B0001040FDF786BF10BD00100140E804002068
:1025C00010B501220F49104800F048FD08B1FDF791
:1025D00078FF0E490C4800F029FF08B1FDF771FFA4
:1025E0000B49094800F062FB08B1FDF76AFF064895
:1025F00000F072FF002803D0BDE81040FDF761BF76
:1026000010BD00000C000020E8050020D0010020D3
:102610005C000020FEE7FFF7CBB900000148FEF7A1
:102620002BBD0000AC0800202DE9F04104460068F5
:102630000E46016C00EB4615D5F8080B27692023E0
:102640004FF40042012F08D02C4FB9424FD1010462
:1026500049D500BFC5F8082B4DE0DFF8A4C05FEAFC
:10266000007E04F5717711D5614503D9000401D5C9
:10267000C5F8082B2046FFF73BF83A4601212068B1
:1026800001F0E4FA0820C5F8080B34E05FEA806E38
:1026900002D5C5F8083B2EE010F0280F2BD161457C
:1026A00001D90004D6D4C6EBC60004EB8000D5F8EF
:1026B000102BD0F80412C2F312028A1AC0F81422A6
:1026C000D0F808221144C0F80812F1B22046FEF7F3
:1026D000BAFB86B9D4F8100268B93A4601212068DD
:1026E00001F0B4FA07E0800601D5C5F8083BF1B265
:1026F0002046FEF7A8FB0020BDE8F0810A31544FC8
:102700000A30544F2DE9F84F0E46C1EBC60100EBDD
:10271000810481460568D4E914103C34884202D90A
:102720000120BDE8F88F081AA168814200D208464E
:10273000C01C870805EB46181BE000BFA0EB010A90
:10274000A068504500D282460AF10300870899F834
:10275000100000901FFA8AF3F2B22846E16801F0F7
:10276000FDFCE16801EB0A00E060A16901EB0A00F1
:10277000A061D8F8180980B2B84205D3D4E90501A0
:10278000814201D20028D9D1D4E90501884208D874
:1027900006F00F0101208840D5F834188143C5F8B0
:1027A00034180020BDE7FFF70BFF012001F07EFD8C
:1027B000FBE7000010B5502080F31188BFF34F8F66
:1027C000BFF36F8F02F088FF18B104494FF08050BB
:1027D0000860002080F3118810BD000004ED00E0C7
:1027E00010B592B030216846FDF77EFD14210CA88B
:1027F000FDF77AFD01200090019002248005CDE9CB
:10280000064008200890F020CDE9090404200B9030
:102810006846FFF7DBF80F20CDE90C0400200E908E
:102820004FF4A0500F90E002109003210CA8FEF787
:1028300095FFFFF731F812B010BD00000D48016898
:1028400041F0010101600B4A002108321160026869
:10285000094B1A400260031D084A1A60026822F4FC
:102860008022026003480C30016005495806086068
:102870007047000000380240FFFFF6FE10300024D1
:1028800008ED00E00148FFF785BB0000A804002028
:10289000F0B50268254C264D264E274F274B4FF0AA
:1028A000804CA04209D0604507D0A84205D0B04274
:1028B00003D0B84201D0984204D122F0700E4A6889
:1028C00042EA0E02A0421BD0604519D0A84217D0A0
:1028D000B04215D0B84213D0984211D0184DA8423A
:1028E0000ED0184DA8420BD0174DA84208D0174D56
:1028F000A84205D0164DA84202D0164DA84203D1D9
:1029000022F44075CA682A434D6922F080022A43A6
:1029100002608A68C2620A688262A04201D098425C
:1029200001D10969016301214161F0BD000001404D
:102930000004004000080040000C0040000401407A
:1029400000400140004401400048014000180040A0
:10295000001C0040002000402DE9F04104460068C2
:102960000169E26821F44051114301612169A068C5
:10297000E26908436169114322680843D16849F25A
:102980000C6399430143D16020684169A26921F435
:10299000407111434161E26964253226B2F5004F6E
:1029A0004D494E48226806D0824201D08A4263D106
:1029B000FEF7B6FF62E0824201D08A4225D1FEF7DF
:1029C000AFFF00EBC00101EB001061686FF0180C65
:1029D0004900B0FBF1F3B3FBF5F3B0FBF1F7B0FB4B
:1029E000F1F203FB0CF307EB830306EBC303B2FB2B
:1029F000F5F2B3FBF5F3120103F0F80302EB430227
:102A0000B0FBF1F3B0FBF1F024E0FEF771FF00EB57
:102A1000C00101EB001160686FF0180C4000B1FBC1
:102A2000F0F3B3FBF5F3B1FBF0F7B1FBF0F203FB0E
:102A30000CF307EB830306EBC303B2FBF5F2B3FB26
:102A4000F5F3120103F0F80302EB4302B1FBF0F3DC
:102A5000B1FBF0F0B0FBF5F06FF01801484303EB69
:102A6000800006EBC000B0FBF5F000F00700216825
:102A700010448860BDE8F081FEF73AFF00EBC0012A
:102A800001EB001160686FF018078000B1FBF0F2F5
:102A9000B2FBF5F2B1FBF0F37A4303EB8202B1FB38
:102AA000F0F306EB0212B2FBF5F2B3FBF5F302F022
:102AB000F00202EB0312B1FBF0F3B1FBF0F0B0FB5C
:102AC000F5F0784303EB800006EB0010B0FBF5F067
:102AD00000F00F00CBE7000000140140001001409F
:102AE0002DE9F041D0F8C032D0F8B822DAB101EBCC
:102AF000810400EB84040025E6694EB1C1EBC107F7
:102B000003EB87035B6CB6FBF3F703FB176323B19F
:102B1000C2F814520020BDE8F08100231A46E56196
:102B200000F067FCF6E70220F5E770B50546D0F83F
:102B3000B84200F06BFBC4F80C02D5F8B80248B1FB
:102B4000D5F8BC12D4F80402CA6804F503719047A2
:102B5000002070BD022070BD70B5044600268121A2
:102B600000F09AFA002501212046E56200F094FA6F
:102B700082212046C4F86C5100F08EFA2564D4F806
:102B8000B80248B1D4F8BC0204F52E7440688047FE
:102B9000206801F015FB2560304670BD10B5D0E906
:102BA000AE4159B194F80002FF2807D08B6894F821
:102BB000012221469847FF2084F80002002010BD22
:102BC0000A21018000487047F8000020432101805D
:102BD00000487047480100204321018000487047A9
:102BE0000401002043210180004870478C0100202F
:102BF0002DE9F04104460026007C4FF400770125C2
:102C000090B3402302228121204600F04BFB402359
:102C1000E56202220121204600F044FB0823032242
:102C200082212046C4F86C5100F03CFB4FF4077041
:102C3000256401F005FBC4F8B802F8B10546D4F8E4
:102C4000BC02006880470020C5F81402C5F81802CD
:102C5000207CD5F8042298B140230121204600F0C1
:102C60002DFB3046BDE8F081FFE73B460222812183
:102C7000204600F017FB3B46E562CAE70126F0E775
:102C80003B46EAE710B5D0F8B81269B1027C002AD9
:102C9000D1F8042205D04023012100F00FFB0020D1
:102CA00010BD4FF40073F7E7022010BD024602206A
:102CB000002902D00020C2F8BC127047D0F8B80238
:102CC000C0F8041200207047D0F8B802C0F81022F3
:102CD000C0F80812002070472DE9FC410546D0F8E5
:102CE000B87200208DF80000ADF8040006460878A0
:102CF0000C4610F0600121D020293BD1E288AAB116
:102D00000006607807D5D5F8BC128B68394698471D
:102D1000E288394626E087F80002A07987F80102A8
:102D2000E2883946284600F04FF828E0D5F8BC1272
:102D3000607800228B682146984720E0607820B1B7
:102D40000A2809D00B2815D110E095F89C02032819
:102D500010D1022201A905E095F89C02032809D1AF
:102D600001226946284600F049F808E095F89C02DF
:102D7000032804D02146284600F01BF802263046DE
:102D8000BDE8FC8110B5D0F8B4225268904700200D
:102D900010BD134610B50A46002100F08FFA00203E
:102DA00010BD134610B50A46002100F022FB00209A
:102DB00010BD10B50446802100F000FB2046BDE8A0
:102DC0001040002100F0FABA10B50323C0F85C21CE
:102DD000C0F89432C0F8602113460A46002100F082
:102DE0006DFA002010BD10B505210023C0F8941223
:102DF0001A46194600F062FA002010BD10B50223F1
:102E0000C261C0F89432026213460A46002100F003
:102E1000F0FA002010BD10B504210023C0F8941270
:102E20001A46194600F0E5FA002010BDF8B5044630
:102E30000020ADF8000048880D46010A082948D254
:102E4000DFE801F04704091747473C45D4F8B012C2
:102E5000207C0A6819E0207C02260028D4F8B402FD
:102E600005D0C16A68468847014646703EE0816ADF
:102E7000F8E7C0B206282CD2DFE800F0030A1014ED
:102E8000181CD4F8B002426805E0694690471CE07F
:102E9000D4F8B0028268E2B1207CF6E7D4F8B00240
:102EA000C268F8E7D4F8B0020269F4E7D4F8B002D7
:102EB0004269F0E7D4F8B0028269ECE7207C40B9BF
:102EC000D4F8B402416B6846884701460EE0207C86
:102ED00020B129462046FFF76CFFF8BDD4F8B402B4
:102EE000016B68468847014607204870BDF800001E
:102EF00048B1EA8852B1824200D90246ADF80020BA
:102F00002046FFF77BFFE8880028E6D12046FFF740
:102F100082FFF8BD70B5002300281ED004460025AE
:102F200002E06D1CEDB2641C2678002EF9D102245B
:102F300004EB450414801278CA545B1C0322CA5463
:102F400000245B1C06E0CA545B1CDAB28C54521C91
:102F5000D3B2401C0278002AF5D170BD01004FF0B9
:102F6000000004D0012901D0022901D002207047BD
:102F70000120704710B50A46024903A0FFF7CAFFB7
:102F8000004810BDAC0C002043444320436F6E66E4
:102F90006967000012200880004870472C0000205C
:102FA00010B50A46024903A0FFF7B4FF004810BD60
:102FB000AC0C002043444320496E74657266616323
:102FC00065000000042008800048704728000020A9
:102FD00010B50A46024903A0FFF79CFF004810BD48
:102FE000AC0C002053544D6963726F656C6563745B
:102FF000726F6E696373000010B50A46024903A040
:10300000FFF788FF004810BDAC0C002053544D332F
:1030100032205669727475616C20436F6D506F7207
:103020007400000010B51A2008800A480168001DCD
:103030000468001D0068081809D008220649FFF737
:1030400009F90549042210312046FFF703F9024827
:10305000801E10BD107AFF1F4200002010B580B105
:10306000D0F8B43213B10023C0F8B43209B1C0F8BB
:10307000B012012180F89C12027000F0CBF8002001
:1030800010BD022010BD10B5D0F8C002FDF70FFF33
:10309000BDE81040FFF762BF10B5D0F8C002FDF7E1
:1030A000E0FEBDE81040FFF759BF2DE9F04117469B
:1030B000044651B1D4F8B40242691AB194F89C02A2
:1030C000032851D00220BDE8F081D4F894320025C5
:1030D00004F11400022B03D0042B3AD0C3B33CE01C
:1030E000D0E903639E4207D9F11AC1608AB239461A
:1030F0002046FFF756FE12E08068B0FBF3F103FBB9
:10310000110199B9984211D3D4F8981288420DD27E
:10311000002211462046FFF744FEC4F898520023CF
:103120001A461946204600F0C9F816E0D4F8B40251
:10313000C16829B194F89C02032801D12046884730
:103140008021204600F03AF92046FFF74CFE04E0CB
:10315000FFE78021204600F031F994F8A002012811
:1031600004D184F8A05201E0204690470020AAE74D
:1031700070B51546044649B1D4F8B40282691AB153
:1031800094F89C02032830D0022070BDD4F8941229
:1031900004F5AA70032902D005291ED027E0D0E942
:1031A00003218A420BD9531AC3600846834200D3D5
:1031B00003469AB229462046FFF7EBFD17E0D4F804
:1031C000B402016929B194F89C02032801D1204678
:1031D00088472046FFF71FFE09E000200146C4F89B
:1031E0009402204600F0EAF801E0204690470020D3
:1031F00070BD0020704710B5012180F89C12D0F8F6
:10320000B422017952689047002010BDD0F8C00266
:10321000FDF77BBE10B50178012928D1154901229F
:10322000C1F8FC03C0F8C0121348086006204860CB
:103230000020C8600861C1E906200862C86208630E
:1032400048630846FEF744F908B1FDF73AF94FF430
:1032500000710848FDF7C4FD802200210548FDF7F4
:10326000C3FD4FF4BA7201210248FDF7BDFD0020F5
:1032700010BD0000AC080020000004400A0601F068
:103280007F01D0F8C002C1EBC10100EB810002D583
:1032900090F83E00704790F8FE017047002070479C
:1032A0000020704710B51C461346D0F8C0022246D5
:1032B000FDF734FEBDE81040FFF750BE10B5D0F862
:1032C000C002FDF75BFEBDE81040FFF747BE70B5DA
:1032D0000022044640231146FFF7E4FF4026012563
:1032E000C4F864613346002280212046C4F8585156
:1032F000FFF7D8FF6662A56184F89C520020C4F8ED
:1033000094026060C4F8A402D4F8B80228B1D4F8DA
:10331000B4020021426820469047002070BD90F81A
:103320009C12042903D190F89D1280F89C12002071
:10333000704710B590F89C12032904D1D0F8B4124C
:10334000C96901B18847002010BD01740020704791
:1033500010B5D0F8C002FEF7B7F9BDE81040FFF78E
:10336000FDBD70B5044600F52A70054600F04AF828
:103370000120C4F89402B4F8AE02C4F8980294F89C
:10338000A80210F01F010AD001290DD0022910D087
:1033900000F08001204600F011F8002070BD2946A1
:1033A000204600F09EF8F8E72946204600F0CAF9CA
:1033B000F3E72946204600F01DF9EEE710B5D0F8F6
:1033C000C002FDF7FFFDBDE81040FFF7C7BD10B517
:1033D000D0F8C002FEF793F9BDE81040FFF7BEBD7C
:1033E00090F89C1280F89D12042180F89C12002015
:1033F000704710B5D0F8C002FDF71EFEBDE81040C2
:10340000FFF7ACBD0A7802704A7842708A78CB78B0
:1034100002EB032242800A794B7902EB032282807D
:103420008A79C97902EB0121C180704702460020E8
:1034300011B1C2F8B41270470220704710B5D0F82D
:10344000B42202241AB11268904700B90024204621
:1034500010BD000070B50E461E4D897804462970D7
:10346000012931D894F89C0202280BD003280FD0F0
:1034700031462046FFF79DFC29782046BDE8704084
:10348000FFF780BCD9B10320616084F89C0209E099
:1034900071B16068884212D0C1B22046FFF772FC59
:1034A000297861602046FFF7C9FF02280CD006E0AA
:1034B000022084F89C0220466160FFF763FC2046EE
:1034C000BDE87040FFF7A7BC31462046BDE870401C
:1034D000FFF76FBCF400002010B5FFF778FF002065
:1034E00010BD2DE9F0410A78002612F0600208D0E4
:1034F000202A01D0402A70D1D0F8B4229268904797
:103500006DE04B78002201250A2B66D2DFE803F03C
:10351000405D6557650805652C29FFF787FC5EE06F
:1035200004468888D8B9C888C8B94888802816D27F
:1035300000F07F0794F89C02032810D084F89E7254
:1035400039462046FFF704FF2046FFF764FC1FB111
:10355000022084F89C0242E084F89C523FE020461E
:103560003BE0FFF777FF3AE0CB88012B35D190F8AD
:103570009C32012B04D0022B02D0032B2DD104E06E
:103580008260012200F1080116E00122011D13E012
:1035900090F89C22012A03D0022A01D0032A1CD1D0
:1035A000CA88022A19D1C560D0F8A41209B1032132
:1035B000C160022200F10C01FFF720FC0FE04988F6
:1035C00001290CD1C0F8A45211E090F89C32012BD3
:1035D00008D0022B06D0032B04D0FFF7EAFB3046BD
:1035E000BDE8F08149880129F9D1C0F8A422FFF78C
:1035F00012FCF4E72DE9F0410A4604461078002752
:10360000097910F060030AD0202B01D0402B50D153
:10361000D4F8B40211468368204698478FE0C0F37F
:103620004110012806D05078D0B301282AD00328B1
:103630003FD107E0D4F8B402114683682046BDE8C4
:10364000F041184794F89C02022802D0032872D156
:103650000AE071B380296ED02046FFF7AFFE8021CB
:103660002046FFF7ABFE6AE0508838B931B18029B7
:1036700004D0D08810B92046FFF7A0FE2046FFF7FF
:10368000CAFB5CE094F89C020228E2D0032852D1E5
:10369000508898BB4806F1D02046FFF7F4FCEDE7D0
:1036A000FFE794F89C020026022803D0032842D1A9
:1036B00012E040E009B180293DD1080601F07F0009
:1036C00000EB800004EB800101D5143101E001F52D
:1036D000AA7102220E602AE0080601F00F0000EB3A
:1036E000800004EB80000AD5806920B301F07F00E0
:1036F00000EB800004EB800514350BE01FE0D0F8F0
:103700005801C0B101F07F0000EB800004EB8005A0
:1037100005F5AA7541B1802906D02046FFF7AEFD18
:1037200010B10120286000E02E60022229462046C8
:10373000FFF764FB03E011462046FFF73AFB3846EB
:10374000BDE8F08170B5054608780C4610F06000C1
:1037500003D0202801D0402816D195F89C020128DA
:1037600003D0022801D003280ED1207901280BD8DC
:10377000D5F8B402826828469047E188014306D113
:103780002846FFF748FB02E02846FFF712FB00201F
:1037900070BD000070B50A78012302F00F054E7865
:1037A000AB401B4CD0F81C58012E17D045EA034300
:1037B000C0F81C3800EB4210D0F8002B12040BD4D8
:1037C000D0F8002B0B89C978C3F30A031A4344EAE3
:1037D00081410A43C0F8002B002070BD9BB21D43FD
:1037E000C0F81C5800EB4210D0F800391B04F3D489
:1037F000D0F800390D89C978C5F30A0589042B432F
:1038000041EA82510B432343C0F80039E4E700004A
:1038100000800010D0F800196FF30A01C0F80019F9
:10382000D0F80818C1F34101022905D1D0F80019D8
:1038300041F00301C0F80019D0F8041841F4807178
:10384000C0F804180020704770B504460699049D1E
:103850000D98012915D0E06840F04000E060204656
:1038600000F028F8A16B41F48031A163012D07D14C
:10387000A16841F00601A160A16841F02001A160AA
:1038800070BDA16B21F48031A163E168084A114049
:10389000E160E16821F44011E160012803D1E068B2
:1038A00040F48010E060204600F004F8DEE70000FD
:1038B000BFFFBDFF01220C4902E0521C8A420BD817
:1038C0000369002BF9DA026942F001020261012268
:1038D00004E0521C8A4201D9032070470369DB07C8
:1038E000F7D1002070470000400D030030B50B7881
:1038F0004D78012203F00F0402FA04F4012DD0F8F0
:103900003C5817D025EA0444C0F83C48D0F81C487D
:10391000097801F00F018A4024EA0241C0F81C181E
:1039200000EB4310D0F8001B0E4A1140C0F8001BFA
:10393000002030BDA4B2A543C0F83C58D0F81C48C4
:10394000097801F00F018A4091B28C43C0F81C48FD
:1039500000EB4310D0F80019034A1140C0F80019D9
:10396000E6E700000078F3EF007833EC10B5D0F80C
:10397000041821F00201C0F804180320FCF7ECFF42
:10398000002010BD10B5D0F8041841F00201C0F8B5
:1039900004180320FCF7E0FF002010BD2DE9F04FD4
:1039A0000025DDE90BCB0E460446DDF84090099F6B
:1039B0002846294604EB8002C2F80411401C0F2857
:1039C000F8D32046A06BB9F1000F17D020F40012F5
:1039D000A263A06B40F40022A26308468846C4F8A4
:1039E000000ED4F800182046C4F80018BCF1010FEE
:1039F0000FD0D0F8001841F003010FE040F400129E
:103A0000A263A06B20F40022A263A06B20F48022AA
:103A1000E2E7D0F800180BB141F00101C0F800183E
:103A2000102100F0A1FA00B10125204600F08CFA27
:103A300000B101254046C4F81088C4F81488C4F8C1
:103A40001C8800214FF000634FF090484FF67F3AFA
:103A500015E000BF04EB4112D2F800C9BCF1000F21
:103A600006DA11B1C2F8008904E0C4F8003901E0B7
:103A7000C2F80009C2F81009C2F808A9491C8E4210
:103A8000E8D8002115E000BF04EB4112D2F800CBCA
:103A9000BCF1000F06DA11B1C2F8008B04E0C4F8E3
:103AA000003B01E0C2F8000BC2F8100BC2F808ABF3
:103AB000491C8E42E8D8D4F8101821F480722146AF
:103AC000C4F81028012F08D1134AC1F83028D1F8C2
:103AD0003018124A1143C4F83018A0616FF08040CA
:103AE00060611FB9A06940F01000A061A0690C4995
:103AF0000843A061BBF1000F03D0A06940F00800AB
:103B0000A061B9F1010F03D1A06906490843A06182
:103B10002846BDE8F08F000000018000030001008E
:103B200000383C8004000040816821F00101816080
:103B30000020704770B50D784E78434CEBB200EB27
:103B40004313012E1FD0D3F8100B6FF31200C3F8EC
:103B5000100BD3F8100B2040C3F8100B486908B1C4
:103B600088684861D3F8100B40F40020C3F8100BAC
:103B7000D3F8100B8C68C4F312042043C3F8100B65
:103B8000012A55D058E04E69002ED3F8106932D082
:103B90006FF31206C3F81069D3F810692640C3F812
:103BA00010694E698C68A64200D94C61D3F810495F
:103BB00044F40024C3F81049D3F810494E69C6F301
:103BC00012063443C3F81049012A22D000EB4512F3
:103BD000D2F8003943F00443C2F800394A6932B3DD
:103BE000D0F83428097801F00F03012199400A43E5
:103BF000C0F8342826E02640C3F81069D3F81049ED
:103C000044F40024C3F81049D3F810496FF31204A8
:103C1000D8E7096919B100EB4512C2F8141900EB95
:103C20004510D0F8001941F00441C0F8001909E02E
:103C3000C86808B1C3F8140BD3F8000B40F0044077
:103C4000C3F8000B002070BDFFFF07E010B5036C48
:103C5000134CA34203D9D0F8003B002B1EDB0023FA
:103C6000C0F8103BD0F8103B43F40023C0F8103BE1
:103C7000D0F8103B43F01803C0F8103BD0F8103BCD
:103C800043F0C043C0F8103B012907D1C0F8142B02
:103C9000D0F8001B41F08021C0F8001B002010BDAF
:103CA0000A30544F4A780B78012A00EB43100BD0AE
:103CB000D0F8002B22F40012C0F8002BC978032999
:103CC00014D0022912D017E0D0F8002922F40012F3
:103CD000C0F80029C978032901D002290CD1D0F8F5
:103CE000001941F08051C0F8001905E0D0F8001B20
:103CF00041F08051C0F8001B002070470A784B78D3
:103D0000D1B200EB4110012B12D0D0F8001B0029DA
:103D100006DB2AB1D0F8001B21F08041C0F8001B5F
:103D2000D0F8001B41F40011C0F8001B00207047C0
:103D3000D0F80019002906DB2AB1D0F8001921F0CB
:103D40008041C0F80019D0F8001941F40011C0F802
:103D50000019EBE7F8B50C784F78774DE3B26FF0C8
:103D6000604600EB4313012F26D0D3F8104B6FF3BE
:103D70001204C3F8104BD3F8104B2C40C3F8104B6F
:103D80004C69002C74D08D682C44641EB4FBF5F48F
:103D9000D3F8105BA4B206EAC4463543C3F8105BFF
:103DA000D3F8105B8E686643C6F312042543C3F84C
:103DB000105B012A71D0A6E04F691FB3D3F81079C8
:103DC0006FF31207C3F81079D3F810792F40C3F8B6
:103DD00010794F698D682F447F1EB7FBF5F506EA11
:103DE000C545D3F810693543C3F81059D3F81059B5
:103DF0004E69C6F312063543C3F81059CD78012D2C
:103E000010D01BE0D3F810692E40C3F81069D3F826
:103E1000105945F40025C3F81059D3F810596FF321
:103E2000120509E0D3F8105925F0C045C3F8105920
:103E3000D3F8105945F00055C3F81059012A18D08D
:103E400000EB4413D3F8004944F00444C3F800499C
:103E5000CC78012C2FD04A6962B3D0F83428097885
:103E600001F00F03012199400A43C0F8342860E0B3
:103E700036E00A691AB100EB4413C3F81429C97873
:103E800001290FD1D0F80818C90500EB4411D1F869
:103E9000002903D442F0005202E030E042F08052A8
:103EA000C1F8002900EB4410D0F8001941F004419A
:103EB000C0F800193DE0D0F80848E405D3F80049FF
:103EC00002D444F0005401E044F08054C3F80049A7
:103ED00000928A8A93B20A78C96800F03FF928E014
:103EE000D3F8104B8D68C5F312052C43C3F8104B63
:103EF000D3F8104B44F40024C3F8104B59E7CA68B8
:103F00000AB1C3F8142BC97801290CD1D0F80808DC
:103F1000C005D3F8000B02D440F0005001E040F09F
:103F20008050C3F8000BD3F8000B40F00440C3F8F6
:103F3000000B0020F8BD0000FFFF07E0816841F0A2
:103F40000101816000207047002110220261054AB2
:103F5000491C914201D9032070470369DB06F7D45D
:103F600000207047400D03000022202343EA811106
:103F700001610549521C8A4201D903207047036937
:103F80009B06F7D400207047400D0300D0F80808C6
:103F900010F0060004D0022803D0062801D00F201C
:103FA000704702207047406900F001007047D0F868
:103FB0001818D0F81C08084080B27047D0F81818BC
:103FC000D0F81C080840000C704710B5D0F8103825
:103FD000D0F8342801F00F0400EB4110E24002F069
:103FE0000102D0F8080943EAC212104010BD00EBEC
:103FF0004111D1F8081BD0F81408084070474169F6
:10400000806908407047D21C10B59308002200F563
:10401000805002E00468521C10C19A42FAD308464C
:1040200010BD10B5C26822F0C042C260012902D0A2
:1040300029B1012010BDC16841F0005102E0C16802
:1040400041F08041C1603220FCF786FC002010BDA9
:10405000D0F8002822F4FE62C0F80028D0F800282A
:104060004FF4FE6303EA01110A43C0F80028002060
:1040700070470000022A3ED1264A274B0A449A4242
:1040800001D20F2138E0254A254B0A449A4201D239
:104090000E2131E0234A244B0A449A4201D20D21D9
:1040A0002AE0224A224B0A449A4201D20C2123E000
:1040B000204A214B0A449A4201D20B211CE01F4A9C
:1040C0001F4B0A449A4201D20A2115E01D4A1E4B99
:1040D0000A449A420FD31D4A1D4B0A449A4201D208
:1040E000082109E01B4A11441B4A914201D20721D1
:1040F00002E0062100E00921C26822F47052C26089
:10410000C2684FF4705303EA81210A43C260002061
:1041100070470000405327FF00350C00401E1BFF76
:1041200040420F0000DC0BFF804F1200808CF9FE34
:1041300020D6130060B6E5FE60E3160000D3CEFE85
:1041400040771B00C05BB3FEC091210000CA91FE06
:1041500020753800E05459FEE09C410010B5029CE7
:1041600064B9DB1C9C0800EB0230002300F5805092
:1041700002E004C902605B1CA342FAD3002010BD18
:10418000FEE70907090E002804DB00F1E02080F8B3
:104190000014704700F00F0000F1E02080F8141DBB
:1041A000704702E008C8121F08C1002AFAD1704700
:1041B0007047002001E001C1121F002AFBD17047A7
:1041C00010B5002821D0114B0022001F196803E010
:1041D000814203D80A4649680029F9D152B11368CF
:1041E000841A9C4204D1006818441060104602E012
:1041F000506000E0186039B102680B1A934203D195
:104200000B681A4402604968416010BD0802002032
:10421000FCF704FDFEF7E4FAFEF7E4F8FEF754F8C5
:10422000FEF734F8FEF7AEF8FEF76AF9FEF78AF902
:10423000FEF7AAF9FEF78EF800F06EF8FEE7000030
:10424000F0B50B30154D20F007010024144A0FE0A3
:1042500003688B420BD38B4205D95E1A431847681B
:10426000C3E9006700E04368136002C004E0021D78
:1042700010680028ECD12046002802D1286808B137
:104280000020F0BD064A07481060074A121A22F0C3
:104290000702C0E9002401202860D7E70C020020B3
:1042A00008020020846700208069002010B5EFF329
:1042B000058149B9EFF3108131B90849096802292C
:1042C00005D1EFF3118111B16FF0050403E0002473
:1042D00008B100F0EBFD204610BD0000CC0000202E
:1042E000EFF3058058B9EFF3108040B90949086829
:1042F000022801D030B109E0EFF3118030B16FF046
:104300000500704701200860002070474FF0FF3023
:1043100070470000CC00002010B5EFF3058060B9B5
:10432000EFF3108048B90B490868022802D0012831
:1043300006D00BE0EFF3118040B16FF0050010BD27
:104340000220086000F01AFE002010BD4FF0FF3080
:1043500010BD0000CC000020F0B585B04FEA01038D
:104360004FF00004EFF305810394A1BBEFF310813C
:1043700089BB21490968022902D1EFF3118151BBA0
:1043800048B3802618218DF8104004AD42B3176859
:1043900007B13D4697691FB139467F1E382F02D2BB
:1043A0001779FF0702D0002005B0F0BD576907B1AB
:1043B000BE08D2F808C0BCF1000F0DD0D4685C2C48
:1043C00018D312693AB137B18DE806103246294642
:1043D00001F043F903900DE0D7685FB912694AB95B
:1043E00003AACDE90012B2B2294601F009F9012869
:1043F00000D003940398D7E7CC0000202DE9F041CA
:10440000134C0F46054666692068001D00F01AFC33
:10441000681C07D137B12168BDE8F0410D48091D7E
:1044200000F063BC20683544B5424560216805D280
:10443000A068BDE8F041091D00F03FBC6068091D9F
:1044400000F03BFC206B854200D22563BDE8F08183
:104450007C0000209C2300202DE9F041054600F05F
:1044600051FC2D4C2069401C206120682B4F10B15D
:10447000E06930B32BE025602069012827D10026B0
:1044800006EB860007EB800000F009FC761C382E56
:10449000F6D3234800F003FC2148143000F0FFFB62
:1044A0001F48283000F0FBFB1D483C3000F0F7FBB4
:1044B0001B48503000F0F3FB194860601430A060D6
:1044C00005E02068E96AC06A884200D82560E06A91
:1044D000401CE0626864E86AA169884200D9A06172
:1044E00000EB800007EB8000291D00F0FEFB00F0D0
:1044F00029FCE06900280CD02068E96AC06A88427B
:1045000007D208494FF080500860BFF34F8FBFF3C8
:104510006F8FBDE8F08100007C000020EC1E0020C1
:104520004C23002004ED00E038B500F0EBFB104C0C
:10453000A068C8B90F4800F0B2FB0E48143000F074
:10454000AEFB0C482060143060600A4B002028331A
:10455000009003F1500210210A2000F0F5FDA06048
:1045600010B105A100F06CFCBDE8384000F0EABBDA
:10457000B8000020B0230020546D725100000000EC
:1045800030B4026C0B46002A0BD0C1681144C160E4
:104590004468A14201D30168C16030BC1846FBF7F2
:1045A0008ABE30BC70472DE9F041856B1746044642
:1045B0000026026C82B1C7B1E068FBF77CFEE168BF
:1045C000206C091AE1602268914202D26168081ADF
:1045D000E060022F16D017E02068A8B9606801F0EB
:1045E000E3F80646002060600EE0A068FBF763FE7B
:1045F000216CA0680844A0606168884204D32068E8
:10460000A06001E005B16D1E6D1CA5633046BDE8DC
:10461000F08110B5044690F8590058B101280CD02B
:1046200002280FD0502080F31188BFF34F8FBFF3C3
:104630006F8FFEE7206B00F099FB2046BDE810402D
:1046400000F094BB10BD000010484FF470514207B9
:1046500006D0C01D0D4920F00700411AC1F5705168
:104660000B4A00230144C2E900030839103A21F043
:10467000070111604B600B600B1AC0E900139360D7
:104680004FF000405360D06070470000802B002046
:10469000E0000020144E154CA6F29C474FF08058C5
:1046A000DFF84C9012E000BF00F02CFBF068C5680A
:1046B000281D00F0C7FA2069401E2061E068401EF6
:1046C000E06000F03FFB2846FFF7A3FFE06800280A
:1046D000EAD138680128F9D9C9F80080BFF34F8FB3
:1046E000BFF36F8FF2E70000882300207C000020DA
:1046F00004ED00E070B51D46049C51B1C4F80020E3
:10470000C4E90F010121204600F052FD84F84C500D
:1047100070BD2460F4E72DE9F0470E46DDE9098419
:104720001746824691009946089DA522206BFBF70B
:10473000D4FD6FF00301206B01EB8701084420F0EA
:104740000707780707D0502080F31188BFF34F8FF9
:10475000BFF36F8FFEE72218315C82F83410315CB2
:1047600011B1401C1028F6D3002684F84360382D80
:1047700000D33725E562C4E91356201D00F09AFAEC
:1047800004F1180000F096FA2461C5F13800646263
:10479000A061666584F858604A465146384600F084
:1047A0003FFA2060B8F1000F01D0C8F80040BDE822
:1047B000F087000030B5114900E011460A688242D6
:1047C000FBD34B685C18844203D1406818444860AE
:1047D000084643681C18944209D1084C103C2468D0
:1047E000A24209D052681A4442600A681268026004
:1047F000814200D0086030BD0460F9E7E00000208D
:1048000070B5002441600B4D0061914206D8D11A69
:104810008269914206D2011D686807E09A4203D27C
:10482000994201D3012403E0011D286800F045FAF4
:10483000204670BDB800002010B5044600F062FAB2
:10484000A06B28B15FF0000400F07CFA204610BD98
:104850000124F9E730B589B0304D55E004980028BF
:1048600006DADDE90601059A9047049800284BDB3B
:10487000069C606910B1201D00F0E4F902A800F068
:10488000B9F8024604980A283ED2DFE800F0050590
:10489000053D263705053D260598A16903460144D7
:1048A0002046FFF7ADFF00B3616A20468847E06904
:1048B000012829D1002000900598A1690023421801
:1048C0001946204601F07AF878B9502080F3118813
:1048D000BFF34F8FBFF36F8FFEE70598A06128B13C
:1048E000811813462046FFF78BFF0DE0502080F320
:1048F0001188BFF34F8FBFF36F8FFEE794F82C0042
:1049000010B9204600F032FA002204A9A86800F08D
:10491000A1FD0028A2D109B030BD0000B8000020E0
:104920002DE9FC410F46054600F06CFB01A800F0A4
:1049300061F80446019818B100F0AEFFBDE8FC81B3
:10494000224EAFB170680068A8B30027291B3A4611
:10495000B06800F089FA00F09FFF0028EED11C49F2
:104960004FF080500860BFF34F8FBFF36F8FE5E7C4
:10497000A542EBD800F090FF30682746C068C468B5
:10498000201D00F05FF9E069012810D1A0692B46D5
:1049900041193A462046FFF733FF40B10020034655
:1049A000014600902A46204601F008F820B1616ACD
:1049B00020468847C2E707E0502080F31188BFF304
:1049C0004F8FBFF36F8FFEE70127BFE7B8000020CE
:1049D00004ED00E006484168096829B14168C968EA
:1049E000C9684968016370474FF0FF31FAE700007A
:1049F0007C00002070B5054600F068FE064E0446B7
:104A00003069844203D200F009F8012000E0002060
:104A100028602046346170BDB8000020F8B5194DFB
:104A20001FE0C068C4680668201D00F00BF9616AC9
:104A300020468847E069012813D1A0693044B0427C
:104A400006D924616060211D286800F036F908E06D
:104A500000200346014600903246204600F0AEFF9B
:104A600038B1286801680029DBD16968C5E9001000
:104A7000F8BD502080F31188BFF34F8FBFF36F8FC5
:104A8000FEE70000B800002008484068401C4FF0D6
:104A9000500080F3118804D0BFF34F8FBFF36F8FA6
:104AA000FEE7BFF34F8FBFF36F8FFEE7E8000020F4
:104AB000074C2068016841B1C0680021D0F80000AF
:104AC000FFF72EFFFFF7C6FEF3E701210020F7E70F
:104AD000B80000202DE9F041044600F013F994F9E4
:104AE000455004F1240609E0606A48B1304600F000
:104AF0009BFE08B100F008FA6D1E6DB2002DF3DCCC
:104B00004FF0FF3684F8456000F01CF900F0FAF829
:104B100094F9445004F1100709E0206948B138467F
:104B200000F082FE08B100F0EFF96D1E6DB2002DAD
:104B3000F3DC84F84460BDE8F04100F003B9000004
:104B40002DE9F0410546002700F05CFA334E30684D
:104B500008B9FFF779FDF068054216D1ADB1083507
:104B600068070ED005F00700C0F10800054468078B
:104B700007D0502080F31188BFF34F8FBFF36F8FA2
:104B8000FEE715B17068854202D900F085FE36E077
:104B90002248103001460C6801E020460C4661684E
:104BA000A94202D221680029F7D131688C42ECD0A9
:104BB00007682168016060680837411B10290ED919
:104BC0006019420707D0502080F31188BFF34F8F40
:104BD000BFF36F8FFEE741606560FFF7EBFD616833
:104BE0007068401A7060B268904200D2B060F0689D
:104BF00001430020C4E9000100F04EFE0FB900F0AF
:104C00004BF8780707D0502080F31188BFF34F8FFF
:104C1000BFF36F8FFEE73846BDE8F081D00000207B
:104C200010B5031F4FF080741C601B1F21F00101A1
:104C30001960191F024B0B60143940380A6010BD0F
:104C4000894A0008D0E9013201699A60D0E901235C
:104C50005A604A68824201D182684A600022026139
:104C60000868401E0860086870470000034B036036
:104C700003F15C000860802010607047C8240020A9
:104C8000044B036003F15C0008604FF48070106017
:104C9000704700002427002070477047704700F1DC
:104CA00008014FF0FF32C0E90112C160016100212B
:104CB0000160704700210161704730B50B685A1CD4
:104CC00002D000F1080202E0026904E022465468C2
:104CD00025689D42FAD953684B6099608A6051609B
:104CE00008610168491C016030BD42684A609368F0
:104CF0008B6093685960916008610168491C01608C
:104D000070470000502080F31188BFF34F8FBFF32E
:104D10006F8F0A494868401C486001280CD1084838
:104D2000006810F0FF0F07D0502080F31188BFF308
:104D30004F8FBFF36F8FFEE770470000E800002041
:104D400004ED00E00849486828B1401E486001D1E0
:104D500080F311887047502080F31188BFF34F8F84
:104D6000BFF36F8FFEE70000E800002070B5002859
:104D700027D0144DA0F108046168E868014207D10A
:104D8000502080F31188BFF34F8FBFF36F8FFEE782
:104D900022683AB1502080F31188BFF34F8FBFF3E0
:104DA0006F8FFEE78143616000F02CF960686968ED
:104DB000084468602046FFF7FDFCBDE8704000F045
:104DC0006BBD70BDD00000204FF0E02000210161DC
:104DD000816105494FF47A720968B1FBF2F1491E0D
:104DE00041610721016170477800002010B5FBF791
:104DF0001BFA114910280ED300F1E02090F8F003BF
:104E00000A78904207D2502080F31188BFF34F8F69
:104E1000BFF36F8FFEE709480068896800F4E0601F
:104E2000884207D9502080F31188BFF34F8FBFF31A
:104E30006F8FFEE710BD0000E80000200CED00E0E1
:104E400010B5084B002200BF53F832401CB1521C71
:104E5000082AF9D310BD43F8321003EBC2014860B1
:104E600010BD0000AC1E002070B515460E4604466D
:104E7000FFF748FF94F944100020491C01D184F841
:104E8000440094F94510491C01D184F84500FFF70E
:104E900059FFA06B28B92A46314604F1240000F0DE
:104EA00051F82046BDE87040FFF714BE10B502006F
:104EB00014D00F48806B38B1502080F31188BFF3B5
:104EC0004F8FBFF36F8FFEE700F09CF80021104674
:104ED000FFF794FA00F0E0FC002807D105494FF0F5
:104EE00080500860BFF34F8FBFF36F8F10BD00007D
:104EF0007C00002004ED00E002498A6A02604969F2
:104F0000416070477C0000200149012048627047E1
:104F10007C00002010B50C4650B1094909681831D1
:104F2000FFF7CBFE2046BDE810400121FFF766BA2F
:104F3000502080F31188BFF34F8FBFF36F8FFEE7D0
:104F40007C00002070B514460D4668B10A49096816
:104F50001831FFF7CAFE0CB14FF0FF352146284645
:104F6000BDE87040FFF74ABA502080F31188BFF3C4
:104F70004F8FBFF36F8FFEE77C00002030B587B006
:104F80000024039405AA04A903A80494FFF76EFE65
:104F9000DDE903010094CDE90110002315A11748B4
:104FA000059A00F05AFB164D002868631FD000F0E8
:104FB000D5FC012809D0401C19D1502080F311885C
:104FC000BFF34F8FBFF36F8FFEE7502080F3118840
:104FD000BFF34F8FBFF36F8F4FF0FF302863012077
:104FE000E8616C6107B0BDE8304000F059B807B027
:104FF00030BD000049444C450000000095460008C3
:105000007C0000200248816B491C816370470000CE
:105010007C00002010B5204CA06B10B10120606214
:1050200010BD0020606220684FF0A531006B02685F
:105030008A4208D142688A4205D182688A4202D1F6
:10504000C068884204D0216820683431FFF725FE0B
:10505000A069124901E0B8B1401E00EB800251F88E
:105060002220002AF7D000EB800201EB820101F13F
:1050700008034A6852684A609A4201D152684A60FD
:10508000D1682160A06110BD502080F31188BFF36A
:105090004F8FBFF36F8FFEE77C000020EC1E0020D7
:1050A0001CB5264908780190FF20087008788DF813
:1050B00000009DF800009DF8002000F0F0009042F4
:1050C00007D0502080F31188BFF34F8FBFF36F8F4D
:1050D000FEE79DF800001A4B00F050001870072002
:1050E000986005E09DF8002052008DF80020401ED9
:1050F0009DF800201206F5D49860032807D05020B0
:1051000080F31188BFF34F8FBFF36F8FFEE74FF42B
:1051100040709860019808700A48016841F4700175
:105120000160016841F070410160FFF74DFE002011
:105130005860FBF743F800201CBD000000E400E0CD
:10514000E800002020ED00E038B5049D18B153B10F
:10515000CAB181B120E0502080F31188BFF34F8F96
:10516000BFF36F8FFEE7502080F31188BFF34F8F9E
:10517000BFF36F8FFEE7502080F31188BFF34F8F8E
:10518000BFF36F8FFEE739B1502080F31188BFF372
:105190004F8FBFF36F8FFEE750241C46012384F826
:1051A00046302B460094FFF7A5FA204638BD000094
:1051B00070B50D46040025D0FFF7A4FDD4E90F20FB
:1051C000216802FB001161600021A1632168A160D8
:1051D0000A46D4E90F01401E00FB0121E16021468F
:1051E0004FF0FF3001F8440F487004F110008DB10A
:1051F000FFF755FD04F12400FFF751FDFFF7A2FD75
:10520000012070BD502080F31188BFF34F8FBFF392
:105210006F8FFEE721690029F0D000F005FB002820
:10522000ECD004494FF080500860BFF34F8FBFF3BC
:105230006F8FE3E704ED00E02DE9FF4782B01D46E4
:105240008A464FF00008040003D0BAF1000F08D0DE
:1052500011E0502080F31188BFF34F8FBFF36F8FA1
:10526000FEE7206C38B1502080F31188BFF34F8FD8
:10527000BFF36F8FFEE7022D0AD1E06B012807D044
:10528000502080F31188BFF34F8FBFF36F8FFEE77D
:1052900000F00EFA3F4F4FF000094FF0805648B92A
:1052A000049838B1502080F31188BFF34F8FBFF3BB
:1052B0006F8FFEE7FFF726FDA06BE16B884207D3F7
:1052C000022D05D00498D0B1B8F1000F1AD01EE01D
:1052D0002A4651462046FFF766F9616A19B104F182
:1052E000240000F0A1FA20B13E60BFF34F8FBFF35E
:1052F0006F8FFFF727FD012006B0BDE8F087FFF7AD
:1053000021FD22E06846FFF7F7FD4FF00108FFF7A7
:1053100019FDFFF777FEFFF7F5FC94F94400401CF8
:1053200001D184F8449094F94500401C01D184F8DF
:105330004590FFF707FD04A9684600F027F930B152
:105340002046FFF7C7FB00F0A7FA0020D4E7FFF7DD
:10535000D9FCA06BE16B884213D1FFF7F3FC04F199
:1053600010000499FFF7D6FD2046FFF7B3FB00F0CD
:1053700093FA00289ED13E60BFF34F8FBFF36F8F2B
:1053800098E7FFF7DFFC2046FFF7A4FB00F084FA64
:1053900090E7000004ED00E02DE9F0471F4690463D
:1053A0008946040003D0B9F1000F08D011E0502065
:1053B00080F31188BFF34F8FBFF36F8FFEE7206C30
:1053C00038B1502080F31188BFF34F8FBFF36F8F38
:1053D000FEE7022F0AD1E06B012807D0502080F3AE
:1053E0001188BFF34F8FBFF36F8FFEE7FFF7FEFC0F
:1053F0005020EFF3118680F31188BFF34F8FBFF376
:105400006F8FA06BE16B884206D3022F04D000207F
:1054100086F31188BDE8F08794F945503A4649462D
:105420002046FFF7C0F8681C04D06D1C84F8455076
:105430000120EDE7606A0028FAD004F1240000F0B2
:10544000F3F90028F4D0B8F1000FF1D00121C8F829
:105450000010EDE72DE9F747002683B08A460400E7
:1054600003D0BAF1000F08D011E0502080F311886A
:10547000BFF34F8FBFF36F8FFEE7206C38B1502022
:1054800080F31188BFF34F8FBFF36F8FFEE700F0FB
:105490000FF9DFF8F4804FF000094FF0805748B95A
:1054A000059838B1502080F31188BFF34F8FBFF3B8
:1054B0006F8FFEE7FFF726FCA56BC5B1514620466E
:1054C000FFF75EF86D1EA563206950B104F110006E
:1054D00000F0AAF928B1C8F80070BFF34F8FBFF3EE
:1054E0006F8FFFF72FFC012006B0BDE8F08705980D
:1054F00008B11EB106E0FFF725FC27E06846FFF77C
:10550000FBFC0126FFF71EFCFFF77CFDFFF7FAFB13
:1055100094F94400401C01D184F8449094F945006A
:10552000401C01D184F84590FFF70CFC05A96846A2
:1055300000F02CF8002820460AD0FFF7CBFA00F044
:10554000ABF92046FFF778F90028B3D00020CBE76D
:10555000FFF772F990B104F124000599FFF7DAFC26
:105560002046FFF7B7FA00F097F90028A2D1C8F853
:105570000070BFF34F8FBFF36F8F9BE72046FFF79D
:10558000A9FA00F089F995E704ED00E02DE9F04172
:105590000C46050011D0C4B1FFF7B4FB174B5A6994
:1055A0006E682068911B471C17D02F689B6A9F422A
:1055B00019D0964217D8012410E0502080F31188AA
:1055C000BFF34F8FBFF36F8FFEE7502080F311883A
:1055D000BFF34F8FBFF36F8FFEE70024FFF7B2FBDF
:1055E0002046BDE8F081884205D9401A206028464F
:1055F000FFF782FCF1E700202060DCE77C00002060
:105600002DE9FF5F8346DDE90E87994616468A46F7
:105610009000FFF795FA05001CD05C20FFF790FA88
:10562000040014D00020256384F85900CDE902401D
:10563000CDE900874B46324651465846FFF76BF896
:105640002046FEF709FF012004B0BDE8F09F284680
:10565000FFF78CFB4FF0FF30F6E7F0B585B0DDE9E2
:105660000B640A9DA6B1DCB15C2700972663022675
:1056700084F85960002604AFCDE90246CDE9005711
:10568000FFF749F82046FEF7E7FE049805B0F0BDA5
:10569000502080F31188BFF34F8FBFF36F8FFEE769
:1056A000502080F31188BFF34F8FBFF36F8FFEE759
:1056B0000548C16919B1806B18B1002070470120FD
:1056C00070470220704700007C00002001484069BC
:1056D000704700007C0000202DE9F041304C00278D
:1056E000A06B18B1206A401C206251E06669761CEC
:1056F000666113D16068006838B1502080F311886A
:10570000BFF34F8FBFF36F8FFEE76068A1686160E2
:10571000A060A06A401CA062FFF75CF9206BDFF874
:105720008480864209D36068006890B16068C06870
:10573000C568686886420FD220632068C06A00EBA3
:10574000800158F82100012800D90127206AF8B10A
:1057500020E04FF0FF30EFE7281DFFF773FAA86A4B
:1057600018B105F11800FFF76DFAE86AA1698842DF
:1057700000D9A06100EB800108EB8100291DFFF733
:10578000B4FAE86A2168C96A8842CCD30127CAE71B
:10579000FFF784FA606A00B101273846BDE8F0815E
:1057A0007C000020EC1E002070B504004FF00001CA
:1057B00033D01B4D2868844207D0502080F31188D5
:1057C000BFF34F8FBFF36F8FFEE7206D38B1401EE0
:1057D0002065E36CE26A9A421FD040B11DE0502080
:1057E00080F31188BFF34F8FBFF36F8FFEE7201D4B
:1057F000FFF728FAE06CE062C0F13800A061E06ACF
:10580000A969884200D9A861064900EB800001EB34
:105810008000211DFFF769FA0121084670BD0000D4
:105820007C000020EC1E002070B5C068C46854B134
:1058300004F118000646FFF705FA144DA86B50B1A5
:105840003146134815E0502080F31188BFF34F8F85
:10585000BFF36F8FFEE7201DFFF7F4F9E06AA96937
:10586000884200D9A8610B4900EB800001EB800061
:10587000211DFFF73AFAE06A2968C96A884202D90D
:105880000120686270BD002070BD00007C00002017
:1058900074230020EC1E00202DE9F0472C4D00243D
:1058A0002746A86B38B1FFF72DFAA86B401EA863F6
:1058B000A86B40B146E0502080F31188BFF34F8FB2
:1058C000BFF36F8FFEE72969224E0120D1B3A6F501
:1058D000916980463068E0B1F068C46804F118004E
:1058E000FFF7B0F9201DFFF7ADF9E06AA96988421A
:1058F00000D9A86100EB800109EB8100211DFFF7B1
:10590000F4F9E06A2968C96A8842E3D3C5F82480BB
:10591000E0E70CB1FFF75EF82C6A4CB14FEA0806DD
:10592000FFF7DAFE00B16E62641EF9D10020286232
:10593000686A38B10849012738070860BFF34F8FFC
:10594000BFF36F8FFFF7FEF93846BDE8F087000020
:105950007C0000207423002004ED00E010B586B028
:10596000FEF7E2FD114CA068B8B10020039004904E
:1059700005AA04A903A8FFF783F9DDE903210220A2
:105980008DE8070000230AA10B48059AFFF765FE82
:10599000E06010B106B0012010BD502080F31188E6
:1059A000BFF34F8FBFF36F8FFEE70000B8000020FA
:1059B000546D722053766300B14A00082DE9FF410F
:1059C0001E46134602000A9D4FF0000016D0144CEC
:1059D000A768002F0FD0CDE900130292062917DA2D
:1059E000FFF766FE02284FF000030FD00022694641
:1059F000A068FFF721FC04B0BDE8F081502080F3DF
:105A00001188BFF34F8FBFF36F8FFEE72A46EEE793
:105A10000023324669463846FFF7BEFCEBE700003C
:105A2000B8000020685A00080000000000000000D4
:105A300000000000000000008000000018000000CE
:105A400000000000000000000006101600061016FE
:105A5000000000000000000001020304060708091E
:105A6000000000000102030464656661756C7454F3
:105A700061736B00945A00080000002010020000BF
:105A8000600300085C5B000810020020706B0000DF
:105A9000B2410008C113952F1B08C5041AD1041A7E
:105AA000F9041325301B0875081AA104170403090B
:105AB0000412011402020216408304405726020118
:105AC000020301031A1A0313C1031B08BD041AB908
:105AD000041AE504192F118210037124F41AAA0183
